S011000043656E74416C61726D2E737265639C
S11300000C9453000C9470000C9470000C947000C9
S11300100C9470000C9470000C9470000C9470009C
S11300200C9470000C9470000C9470000C9470008C
S11300300C9470000C9470000C9470000C9470007C
S11300400C9470000C9470000C9473030C94700066
S11300500C9470000C9470000C9470000C9470005C
S11300600C9470000C947000F0022E03F202F4025F
S1130070F602F802FA02FC02FE0200030203040381
S1130080060308030A030C030E03100312031403EC
S1130090160318031A031C031E032003220324035C
S11300A0260328032A0311241FBECFEFD8E0DEBFA6
S11300B0CDBF11E0A0E0B1E0E4E7F9E002C00590B3
S11300C00D92A038B107D9F721E0A0E8B1E001C052
S11300D01D92A639B207E1F70E94C6030C94B80436
S11300E00C94000081E085B984EF91E00E943A030A
S11300F01C9933C01D9934C01E9935C01F9936C050
S113010082E085B984EF91E00E943A031C9931C0E2
S11301101D9932C01E9933C01F9934C084E085B93B
S113012084EF91E00E943A031C992FC01D9930C0BE
S11301301E9931C01F9932C088E085B984EF91E0DF
S11301400E943A031C992DC01D992EC01E992FC0E0
S11301501F9B30C08DE090E0089581E090E0089509
S113016082E090E0089583E090E008958AE090E0D2
S1130170089584E090E0089585E090E0089586E095
S113018090E008958BE090E0089587E090E0089572
S113019088E090E0089589E090E008958CE090E094
S11301A008958FE090E0089580E090E008958EE057
S11301B090E0089584E190E008950E94550380E75B
S11301C00E945D030E94540288EE93E00E943A0369
S11301D085E090E00E94E70288E091E00E94DA0264
S11301E083E190E00E94E7028FE091E00E94DA024E
S11301F00E94670308950F931F93CF93DF9382E0C8
S113020090E090938101809380010E94550380E7E0
S11302100E945D030E94540284EF91E00E943A031D
S113022081E090E00E94E7028AE191E00E94DA0214
S113023086E190E00E94E7028AE291E00E94DA02FD
S113024086E190E00E94E7020E943203C0E0D0E021
S113025000E010E02BC00E9472009C0193B19295C3
S11302609F70E1F724313105B1F32A30310599F358
S11302702B30310581F32E30310569F32D303105F2
S113028051F3CE01880F991FCC0FDD1FCC0FDD1F5A
S1130290CC0FDD1FC80FD91FC20FD31F2F3031055C
S11302A061F10F5F1F4F8AE20E9480020430110542
S11302B091F60E94360384EF91E00E943A030E9473
S11302C072000F9759F40E94540284EF91E00E9447
S11302D03A030E9467038FEF9FEF11C00E947200E0
S11302E00D9769F70E94540284EF91E00E943A034B
S11302F00E9467038C2F9D2F02C08FEF9FEFDF9129
S1130300CF911F910F910895209180013091810127
S11303102230310509F520918D0130918E01281785
S1130320390749F12091940130919501821793077F
S113033029F120918801309189018217930709F1ED
S1130340209106013091070182179307E9F0019685
S1130350F1F48FEF9FEF089523303105D9F4209104
S113036006013091070182179307B9F00196C1F491
S11303708FEF9FEF089581E090E0089581E090E091
S1130380089581E090E0089581E090E0089580E090
S113039090E0089580E090E0089581E090E0089571
S11303A080E090E008950E94550380E70E945D0379
S11303B00E94540288EE93E00E943A0382E090E0A7
S11303C00E94E7028FE291E00E94DA0281E190E06C
S11303D00E94E7028DE391E00E94DA020E94670323
S11303E00895EBEBF0E080818260808384E8809361
S11303F0BC008091BC008823E4F7EBEBF0E0808143
S11304008D7F808384E88093BC008091BC00882326
S1130410E4F70895CF93C82FEBEBF0E080818E7F53
S1130420808384E88093BC008091BC008823E4F737
S1130430EBEBF0E080818F70808384E88093BC00D4
S11304408091BC008823E4F7EBEBF0E080819C2FE3
S1130450907F892B808384E88093BC008091BC00CA
S11304608823E4F70E94F101EBEBF0E080818F70C8
S1130470808384E88093BC008091BC008823E4F7E7
S1130480EBEBF0E0208130E1C39FC0011124822B0B
S1130490808384E88093BC008091BC008823E4F7C7
S11304A00E94F101CF91089581E00E940A0208950B
S11304B0EBEBF0E090819E7F908394E89093BC00F6
S11304C09091BC009923E4F7EBEBF0E090819F70EE
S11304D0908394E89093BC009091BC009923E4F736
S11304E0EBEBF0E09081807F892B808384E880931C
S11304F0BC008091BC008823E4F70E94F1010895B8
S1130500CF93C82FEBEBF0E080818160808384E897
S11305108093BC008091BC008823E4F7EBEBF0E00F
S113052080818F70808384E88093BC008091BC00BC
S11305308823E4F7EBEBF0E080819C2F907F892BFC
S1130540808384E88093BC008091BC008823E4F716
S11305500E94F101EBEBF0E080818F70808384E8EE
S11305608093BC008091BC008823E4F7EBEBF0E0BF
S1130570208130E1C39FC0011124822B808384E851
S11305808093BC008091BC008823E4F70E94F101B1
S1130590CF91089580E20E94580280E20E9458029E
S11305A080E80E9458028EE00E940A0286E00E94BF
S11305B00A020895CF93DF93EC0103C021960E94B1
S11305C0800288818111FACFDF91CF9108958F3114
S11305D0910508F041C0FC01EC5CFF4F0C94B2049F
S11305E080E83DC082E83BC083E839C084E837C076
S11305F085E835C086E833C087E831C088E82FC075
S113060089E82DC08AE82BC08BE829C08CE827C074
S11306108DE825C08EE823C08FE821C080EC1FC080
S113062081EC1DC082EC1BC083EC19C084EC17C0A4
S113063085EC15C086EC13C087EC11C088EC0FC0A4
S113064089EC0DC08AEC0BC08BEC09C08CEC07C0A4
S11306508DEC05C08EEC03C08FEC01C081E80E94D4
S11306600A0208958DE00E940A0208958CE00E9417
S11306700A02089540E050E00BC02F5F3F4F02C0D4
S113068020E030E02F3F3105C1F3BCF34F5F5F4FF3
S113069084179507ACF7089580E28093B80084E04E
S11306A08093BC001092B900089584EA8093BC0042
S11306B08091BC008823E4F708958093BB0084E80C
S11306C08093BC008091BC008823E4F7089584E9FA
S11306D08093BC0081E008959091C00095FFFCCF09
S11306E08093C60008951F920F920FB60F921124A3
S11306F02F933F934F935F936F937F938F939F9326
S1130700AF93BF93EF93FF938091C600803369F555
S113071080E20E946C0381E60E946C038CE60E94D6
S11307206C038FE60E946C0380E20E946C038DE6EA
S11307300E946C0385E60E946C0385E70E946C03AB
S113074080E20E946C0380E70E946C0381E60E94B1
S11307506C0382E70E946C0383E70E946C0381E6CA
S11307600E946C0380E20E946C03FF91EF91BF91A1
S1130770AF919F918F917F916F915F914F913F9135
S11307802F910F900FBE0F901F9018958FE084B992
S113079087E08AB980E387B90E944C030E9455031D
S11307A082E70E945D0380E00E945D030E9455037E
S11307B080E70E945D030E94CA028CE00E940A0244
S11307C00E9467030E94720015B836C00E94DD00C3
S11307D00E94720015B80B9779F521C00E94550349
S11307E080E70E945D0382E090E00E94E70286E6D3
S11307F091E00E94DA0282E190E00E94E70283E73E
S113080091E00E94DA0288E893E10E943A030E9490
S1130810540288EE93E00E943A030E94670382E048
S113082090E090938101809380010E94FB000E94DC
S11308308401892B99F6F3CF8091800190918101F5
S1130840892B21F287C00E94D3010E947200EC011F
S113085015B80E94550380E70E945D036DC00E9495
S11308607200EC0115B88091000190910101892B6F
S113087039F084E190E00E94E7028AE20E9480025B
S11308808091020190910301892B39F089E190E074
S11308900E94E7028AE20E94800280910401909102
S11308A00501892B39F08EE190E00E94E7028AE28B
S11308B00E94800288EE93E00E943A0384E190E073
S11308C00E94E7028DE20E94800289E190E00E948A
S11308D0E7028DE20E94800288EE93E00E943A03D0
S11308E08EE190E00E94E7028DE20E94800288EE91
S11308F093E00E943A03CC30D10589F40E94FB00B6
S11309000E948401892B29F01092810110928001A8
S113091006C081E090E09093810180938001CE3005
S1130920D10551F485E090E090938101809380019A
S113093083B182958F70E1F7CE30D10519F02C97F1
S113094009F08DCF0E94540280ED97E00E943A0393
S11309500E9467038091800190918101019709F4BD
S113096072CF30CFEE0FFF1F0590F491E02D099464
S1070970F894FFCF25
S1130974010000000000D204414C41524D450044A2
S113098445534154495641444F00494E53495241F9
S113099420412053454E48413A002D2D2D2D00432E
S11309A4454E5452414C204154495641005A313A1F
S11309B42D205A323A2D205A333A2D00494E5349A8
S11309C452412053454E4841204D3A00313233348C
S11309D4002A2A2A2A0054454D504F52495A414468
S11309E44F520044452020415449564143414F004D
S9030000FC
